Type       Start            End              # Pages          Attributes
Available  0000000000000000-000000000009FFFF 00000000000000A0 000000000000000F
Available  0000000000100000-00000000007FFFFF 0000000000000700 000000000000000F
ACPI_NVS   0000000000800000-0000000000807FFF 0000000000000008 000000000000000F
Available  0000000000808000-000000000080AFFF 0000000000000003 000000000000000F
ACPI_NVS   000000000080B000-000000000080BFFF 0000000000000001 000000000000000F
Available  000000000080C000-0000000000810FFF 0000000000000005 000000000000000F
ACPI_NVS   0000000000811000-00000000008FFFFF 00000000000000EF 000000000000000F
BS_Data    0000000000900000-000000000177FFFF 0000000000000E80 000000000000000F
Available  0000000001780000-0000000003B6BFFF 00000000000023EC 000000000000000F
BS_Data    0000000003B6C000-0000000003B8BFFF 0000000000000020 000000000000000F
Available  0000000003B8C000-0000000005FB7FFF 000000000000242C 000000000000000F
LoaderCode 0000000005FB8000-000000000609EFFF 00000000000000E7 000000000000000F
Available  000000000609F000-00000000060FCFFF 000000000000005E 000000000000000F
BS_Data    00000000060FD000-000000000611BFFF 000000000000001F 000000000000000F
Available  000000000611C000-0000000006130FFF 0000000000000015 000000000000000F
BS_Data    0000000006131000-0000000006147FFF 0000000000000017 000000000000000F
Available  0000000006148000-0000000006148FFF 0000000000000001 000000000000000F
BS_Data    0000000006149000-0000000006759FFF 0000000000000611 000000000000000F
BS_Code    000000000675A000-0000000006801FFF 00000000000000A8 000000000000000F
BS_Data    0000000006802000-0000000006859FFF 0000000000000058 000000000000000F
BS_Code    000000000685A000-0000000006888FFF 000000000000002F 000000000000000F
BS_Data    0000000006889000-000000000688AFFF 0000000000000002 000000000000000F
BS_Code    000000000688B000-0000000006899FFF 000000000000000F 000000000000000F
BS_Data    000000000689A000-000000000689AFFF 0000000000000001 000000000000000F
BS_Code    000000000689B000-00000000068A8FFF 000000000000000E 000000000000000F
BS_Data    00000000068A9000-00000000068AFFFF 0000000000000007 000000000000000F
BS_Code    00000000068B0000-00000000068CBFFF 000000000000001C 000000000000000F
BS_Data    00000000068CC000-00000000068CDFFF 0000000000000002 000000000000000F
BS_Code    00000000068CE000-00000000068FBFFF 000000000000002E 000000000000000F
BS_Data    00000000068FC000-0000000006900FFF 0000000000000005 000000000000000F
BS_Code    0000000006901000-0000000006912FFF 0000000000000012 000000000000000F
BS_Data    0000000006913000-0000000006916FFF 0000000000000004 000000000000000F
BS_Code    0000000006917000-0000000006936FFF 0000000000000020 000000000000000F
BS_Data    0000000006937000-0000000006937FFF 0000000000000001 000000000000000F
BS_Code    0000000006938000-000000000693BFFF 0000000000000004 000000000000000F
BS_Data    000000000693C000-000000000693FFFF 0000000000000004 000000000000000F
BS_Code    0000000006940000-000000000694EFFF 000000000000000F 000000000000000F
BS_Data    000000000694F000-000000000694FFFF 0000000000000001 000000000000000F
BS_Code    0000000006950000-0000000006952FFF 0000000000000003 000000000000000F
BS_Data    0000000006953000-0000000006956FFF 0000000000000004 000000000000000F
BS_Code    0000000006957000-000000000698AFFF 0000000000000034 000000000000000F
BS_Data    000000000698B000-000000000698DFFF 0000000000000003 000000000000000F
BS_Code    000000000698E000-00000000069BBFFF 000000000000002E 000000000000000F
BS_Data    00000000069BC000-00000000069BCFFF 0000000000000001 000000000000000F
BS_Code    00000000069BD000-00000000069CDFFF 0000000000000011 000000000000000F
BS_Data    00000000069CE000-00000000069D4FFF 0000000000000007 000000000000000F
BS_Code    00000000069D5000-00000000069DFFFF 000000000000000B 000000000000000F
BS_Data    00000000069E0000-00000000069E6FFF 0000000000000007 000000000000000F
BS_Code    00000000069E7000-00000000069FFFFF 0000000000000019 000000000000000F
BS_Data    0000000006A00000-0000000006C03FFF 0000000000000204 000000000000000F
BS_Code    0000000006C04000-0000000006C14FFF 0000000000000011 000000000000000F
BS_Data    0000000006C15000-0000000006C1AFFF 0000000000000006 000000000000000F
BS_Code    0000000006C1B000-0000000006C3DFFF 0000000000000023 000000000000000F
BS_Data    0000000006C3E000-0000000006C43FFF 0000000000000006 000000000000000F
BS_Code    0000000006C44000-0000000006C5CFFF 0000000000000019 000000000000000F
BS_Data    0000000006C5D000-0000000006C5DFFF 0000000000000001 000000000000000F
BS_Code    0000000006C5E000-0000000006C62FFF 0000000000000005 000000000000000F
BS_Data    0000000006C63000-0000000006C67FFF 0000000000000005 000000000000000F
BS_Code    0000000006C68000-0000000006C90FFF 0000000000000029 000000000000000F
BS_Data    0000000006C91000-0000000006C92FFF 0000000000000002 000000000000000F
BS_Code    0000000006C93000-0000000006CA6FFF 0000000000000014 000000000000000F
BS_Data    0000000006CA7000-0000000006CABFFF 0000000000000005 000000000000000F
BS_Code    0000000006CAC000-0000000006CCCFFF 0000000000000021 000000000000000F
BS_Data    0000000006CCD000-0000000006CCDFFF 0000000000000001 000000000000000F
BS_Code    0000000006CCE000-0000000006CD6FFF 0000000000000009 000000000000000F
BS_Data    0000000006CD7000-00000000070EBFFF 0000000000000415 000000000000000F
BS_Code    00000000070EC000-00000000070F2FFF 0000000000000007 000000000000000F
BS_Data    00000000070F3000-00000000070F3FFF 0000000000000001 000000000000000F
BS_Code    00000000070F4000-00000000070F6FFF 0000000000000003 000000000000000F
BS_Data    00000000070F7000-00000000070F9FFF 0000000000000003 000000000000000F
BS_Code    00000000070FA000-00000000070FFFFF 0000000000000006 000000000000000F
BS_Data    0000000007100000-0000000007100FFF 0000000000000001 000000000000000F
BS_Code    0000000007101000-0000000007101FFF 0000000000000001 000000000000000F
BS_Data    0000000007102000-0000000007102FFF 0000000000000001 000000000000000F
BS_Code    0000000007103000-000000000711CFFF 000000000000001A 000000000000000F
BS_Data    000000000711D000-00000000074ECFFF 00000000000003D0 000000000000000F
RT_Data    00000000074ED000-00000000075ECFFF 0000000000000100 800000000000000F
RT_Code    00000000075ED000-00000000076ECFFF 0000000000000100 800000000000000F
Reserved   00000000076ED000-000000000776CFFF 0000000000000080 000000000000000F
ACPI_Recl  000000000776D000-000000000777EFFF 0000000000000012 000000000000000F
ACPI_NVS   000000000777F000-00000000077FEFFF 0000000000000080 000000000000000F
BS_Data    00000000077FF000-0000000007DFFFFF 0000000000000601 000000000000000F
Available  0000000007E00000-0000000007E5AFFF 000000000000005B 000000000000000F
BS_Data    0000000007E5B000-0000000007E7AFFF 0000000000000020 000000000000000F
BS_Code    0000000007E7B000-0000000007EABFFF 0000000000000031 000000000000000F
Reserved   0000000007EAC000-0000000007EAFFFF 0000000000000004 000000000000000F
ACPI_NVS   0000000007EB0000-0000000007EB1FFF 0000000000000002 000000000000000F
BS_Code    0000000007EB2000-0000000007EB2FFF 0000000000000001 000000000000000F
BS_Data    0000000007EB3000-0000000007EC3FFF 0000000000000011 000000000000000F
BS_Code    0000000007EC4000-0000000007EF3FFF 0000000000000030 000000000000000F
RT_Data    0000000007EF4000-0000000007F77FFF 0000000000000084 800000000000000F
ACPI_NVS   0000000007F78000-0000000007FFFFFF 0000000000000088 000000000000000F
MMIO       00000000FFC00000-00000000FFFFFFFF 0000000000000400 8000000000000001
Reserved   000000FD00000000-000000FFFFFFFFFF 0000000000300000 0000000000000000
 
  Reserved  :      3,145,860 Pages (12,885,442,560 Bytes)
  LoaderCode:            231 Pages (946,176 Bytes)
  LoaderData:              0 Pages (0 Bytes)
  BS_Code   :            867 Pages (3,551,232 Bytes)
  BS_Data   :          9,643 Pages (39,497,728 Bytes)
  RT_Code   :            256 Pages (1,048,576 Bytes)
  RT_Data   :            388 Pages (1,589,248 Bytes)
  ACPI_Recl :             18 Pages (73,728 Bytes)
  ACPI_NVS  :            514 Pages (2,105,344 Bytes)
  MMIO      :          1,024 Pages (4,194,304 Bytes)
  MMIO_Port :              0 Pages (0 Bytes)
  PalCode   :              0 Pages (0 Bytes)
  Unaccepted:              0 Pages (0 Bytes)
  Available :         20,623 Pages (84,471,808 Bytes)
  Persistent:              0 Pages (0 Bytes)
              -------------- 
Total Memory:            127 MB (133,283,840 Bytes)
